:0300000002004CAF
:200008000000E2FBEAF2802C0000E0FBEAF08024E6B50202EBF62200E2B50202EBF22200DE
:20002800E0B50202EBF02230F6E0A88220F5D3EAC6F582228B822230F6E6A88220F5D980EE
:01004800CFE8
:2000A500750837750938750A39750B2F750C34750D35750E36750F2A7510317511327512A2
:1300C5003375132D75144375153075163D75172B020049F0
:030049000202AF01
:2000D800AE82AF837C007D00C3EC9EED9F50147A7F7B001ABAFF011BEA4B70F70CBC00E8C1
:2000F8000D80E5227F007590FF8FF005F07401800225E0D5F0FBF45290900002C007120060
:20011800D8D0077E0074042EF5F005F07D017C008006ED2DFDEC33FCD5F0F7AA907B00EA0D
:200138005205EB5204ED4C703074042EF5F005F07C017D008006EC2CFCED33FDD5F0F7AA9F
:20015800907B00EC5202ED5203EA4B60F2EF2F25E024082EF9878280120EBE040040A60F9D
:20017800BF040050030200FE0200FC228582A0C2B0C2B1D2B29000021200D8C2B29000029F
:200198001200D8228582A0D2B0C2B1D2B29000021200D8C2B29000021200D822AD82AE832D
:2001B800AFF08D828E838FF01205F0FC60188C820DBD00010EC007C006C00512019CD005B1
:2001D800D006D00780DC22AE82AF83E4FCFDEE4F700875823012019C8079EE4F604F8C029F
:2001F8008D030CBC00010DEA2418F975210A7522008E828F83C007C006C005C004C0011220
:2002180005A3AA82D001D004D005D006D00774302AF775210A7522008E828F83C005C00424
:2002380012055DAE82AF83D004D00580ADC3E49C74808DF063F08095F050181CBCFF011D91
:20025800EC2418F98782C005C00412019CD004D00580DA229000141200D8758238120184AB
:2002780075820C12018475820612018475820112018475828012018422AF82BF3000401306
:20029800EF24C6400E7E00EF24D0F582EE34FFF583800390FFFF2212026C90067E75F08002
:2002B8001201B4751E00751FFF7520FF7BFF7CFF79007A00C004C003C002C0011200FCA8FD
:2002D80082D001D002D003D004B8432275820112018490068F75F0801201B4751E00751F96
:2002F800FF7520FF7BFF7CFF79007A0080C6B82B02800DB82D028008B82A028003B82F23D3
:20031800881E758201C004C003C002C001C000120184D000888212019CD001D002D003D0F7
:200338000480918882C004C003C002C001C000120291AE82AF83D000D001D002D003D0049B
:20035800BEFF06BFFF030203E274FFB51F30B5202D8882C004C003C002C0011202918582E1
:200378001F85832075822012019C851F828520831201DFD001D002D003D0040202CCBBFF44
:2003980005BCFF0280030202CC8882C002C001120291AB82AC83D001D002758220C004C064
:2003B80003C002C00112019CD001D002D003D0048B828C83C004C003C002C0011201DFD0BE
:2003D80001D002D003D0040202CCB83D0280030202CC74FFB51F06B520030202CCBBFF06BC
:2003F800BCFF030202CCE51E70030202CC758201C004C003C002C001120184D001D002D005
:2004180003D004742AB51E02802F742BB51E028011742DB51E028015742FB51E02802E0293
:2004380004FAEB251FF9EC3520FA0204FAE51FC39BF9E5209CFA0204FA8B218C22851F82CD
:20045800852083120586A982AA830204FAEB4C607A9006A275F080C004C003C002C001121D
:2004780001B47582C0120184D001D002D003D0048B218C22851F82852083C004C003C00226
:20049800C0011206421201DF9013881200D87582011201849006AC75F0801201B47582C0EE
:2004B800120184D001D002D003D0048B218C22851F82852083C002C00112060C1201DF9072
:2004D80013881200D8D001D00280179006B775F080C002C0011201B49013881200D8D001E3
:2004F800D002742FB51E02802C9006C775F080C002C0011201B47582C0120184D001D00271
:2005180089828A83C002C0011201DF9013881200D8D001D002751E00751FFF7520FF7BFF4A
:200538007CFF758201C004C003C002C00112018490068F75F0801201B4D001D002D003D078
:05055800040202CC22A8
:20067E0053656C6563744F703A2B202D202A202F0053656C656374204F703A202B202D20C1
:20069E002A202F0051756F7469656E743A0052656D61696E6465723A0044697669646520EA
:1106BE00627920302045727200526573756C743A00FE
:20055D007A10E4FBFCE58225E0F582E58333F583EB33FBEC33FCEB9521F5F0EC9522400680
:09057D00FCABF0438201DADD223F
:06007B00E478FFF6D8FD59
:200059007900E94400601B7A009006CF780175A000E493F2A308B8000205A0D9F4DAF27578
:02007900A0FFE6
:1D058600E5828521F0A4C582C0F08522F0A4D0F025F0C5838521F0A42583F58322EC
:2005A300E521452260467A01E52125E0F521E522334012F522E5829521E583952240030A5D
:2005C30080E6C3E52213F522E52113F521C3E5829521F5F0E58395224005F58385F082C334
:0D05E300E52213F522E52113F521DAE122CE
:200081007800E84400600A790175A000E4F309D8FC7800E84400600C7900900001E4F0A37D
:0400A100D8FCD9FAB4
:0D004C0075812212067AE5826003020049E8
:1C05F00020F71430F6148883A88220F507E6A88375830022E280F7E49322E0221A
:20060C00C2D5E58330E70DD2D5E4C39582F582E49583F583E52230E70BE4C39521F521E4DB
:16062C009522F5221205A330D50BE4C39582F582E49583F5832255
:20064200C2D5E58330E70DD2D5E4C39582F582E49583F583E52230E70DB2D5E4C39521F521
:1806620021E49522F52212055D30D50BE4C39582F582E49583F583225E
:04067A007582002263
:00000001FF
